{
  "contractName": "ItemScore",
  "abi": [
    {
      "inputs": [
        {
          "internalType": "address",
          "name": "",
          "type": "address"
        }
      ],
      "name": "users",
      "outputs": [
        {
          "internalType": "uint256",
          "name": "id",
          "type": "uint256"
        },
        {
          "internalType": "string",
          "name": "name",
          "type": "string"
        },
        {
          "internalType": "uint256",
          "name": "userEstPoints",
          "type": "uint256"
        },
        {
          "internalType": "uint256",
          "name": "validEstPoints",
          "type": "uint256"
        },
        {
          "internalType": "bool",
          "name": "set",
          "type": "bool"
        },
        {
          "internalType": "bool",
          "name": "tokenEL",
          "type": "bool"
        }
      ],
      "stateMutability": "view",
      "type": "function",
      "constant": true
    },
    {
      "inputs": [
        {
          "internalType": "address",
          "name": "userAddress",
          "type": "address"
        },
        {
          "internalType": "uint256",
          "name": "userid",
          "type": "uint256"
        },
        {
          "internalType": "string",
          "name": "username",
          "type": "string"
        }
      ],
      "name": "newUser",
      "outputs": [
        {
          "internalType": "bool",
          "name": "",
          "type": "bool"
        }
      ],
      "stateMutability": "nonpayable",
      "type": "function"
    },
    {
      "inputs": [
        {
          "internalType": "address",
          "name": "userAddress",
          "type": "address"
        }
      ],
      "name": "mappValueUser",
      "outputs": [
        {
          "internalType": "uint256",
          "name": "",
          "type": "uint256"
        }
      ],
      "stateMutability": "view",
      "type": "function",
      "constant": true
    },
    {
      "inputs": [
        {
          "internalType": "address",
          "name": "userAddress",
          "type": "address"
        }
      ],
      "name": "mappValueValidator",
      "outputs": [
        {
          "internalType": "uint256",
          "name": "",
          "type": "uint256"
        }
      ],
      "stateMutability": "view",
      "type": "function",
      "constant": true
    },
    {
      "inputs": [
        {
          "internalType": "address",
          "name": "userAddress",
          "type": "address"
        },
        {
          "internalType": "uint256",
          "name": "point",
          "type": "uint256"
        }
      ],
      "name": "user_Points",
      "outputs": [
        {
          "internalType": "bool",
          "name": "success",
          "type": "bool"
        }
      ],
      "stateMutability": "nonpayable",
      "type": "function"
    },
    {
      "inputs": [
        {
          "internalType": "address",
          "name": "userAddress",
          "type": "address"
        }
      ],
      "name": "userEstim",
      "outputs": [
        {
          "internalType": "uint256",
          "name": "score",
          "type": "uint256"
        }
      ],
      "stateMutability": "nonpayable",
      "type": "function"
    },
    {
      "inputs": [
        {
          "internalType": "address",
          "name": "userAddress",
          "type": "address"
        },
        {
          "internalType": "uint256",
          "name": "point",
          "type": "uint256"
        }
      ],
      "name": "Validator_Points",
      "outputs": [
        {
          "internalType": "bool",
          "name": "success",
          "type": "bool"
        }
      ],
      "stateMutability": "nonpayable",
      "type": "function"
    },
    {
      "inputs": [
        {
          "internalType": "address",
          "name": "userAddress",
          "type": "address"
        }
      ],
      "name": "valEstim",
      "outputs": [
        {
          "internalType": "uint256",
          "name": "score",
          "type": "uint256"
        }
      ],
      "stateMutability": "nonpayable",
      "type": "function"
    },
    {
      "inputs": [
        {
          "internalType": "address",
          "name": "userAddress",
          "type": "address"
        }
      ],
      "name": "compare",
      "outputs": [
        {
          "internalType": "bool",
          "name": "success",
          "type": "bool"
        }
      ],
      "stateMutability": "nonpayable",
      "type": "function"
    }
  ],
  "bytecode": "0x608060405234801561001057600080fd5b50611171806100206000396000f3fe608060405234801561001057600080fd5b50600436106100935760003560e01c8063a07f9c4111610066578063a07f9c4114610158578063a87430ba14610188578063d4ce26c7146101bd578063d86033fd146101ed578063e4e1f6c51461021d57610093565b806348fde817146100985780635f4cfd59146100c85780637c1d7055146100f857806390ceb07e14610128575b600080fd5b6100b260048036038101906100ad919061095f565b61024d565b6040516100bf91906109a5565b60405180910390f35b6100e260048036038101906100dd9190610b32565b610378565b6040516100ef9190610bbc565b60405180910390f35b610112600480360381019061010d919061095f565b610477565b60405161011f91906109a5565b60405180910390f35b610142600480360381019061013d919061095f565b6104c3565b60405161014f91906109a5565b60405180910390f35b610172600480360381019061016d9190610bd7565b6105ee565b60405161017f9190610bbc565b60405180910390f35b6101a2600480360381019061019d919061095f565b61067e565b6040516101b496959493929190610c9f565b60405180910390f35b6101d760048036038101906101d29190610bd7565b61075c565b6040516101e49190610bbc565b60405180910390f35b6102076004803603810190610202919061095f565b6107ec565b60405161021491906109a5565b60405180910390f35b6102376004803603810190610232919061095f565b610838565b6040516102449190610bbc565b60405180910390f35b60008060009050600460008473ffffffffffffffffffffffffffffffffffffffff1673ffffffffffffffffffffffffffffffffffffffff16815260200190815260200160002060040160009054906101000a900460ff161561036d5760005b6001805490508110156103015760018082815481106102ce576102cd610d07565b5b9060005260206000200154036102ee576001826102eb9190610d65565b91505b80806102f990610dbb565b9150506102ac565b50600a8161030f9190610e03565b600381905550600354600460008573ffffffffffffffffffffffffffffffffffffffff1673ffffffffffffffffffffffffffffffffffffffff168152602001908152602001600020600301819055506001600061036c91906108af565b5b600354915050919050565b600082600460008673ffffffffffffffffffffffffffffffffffffffff1673ffffffffffffffffffffffffffffffffffffffff1681526020019081526020016000206000018190555081600460008673ffffffffffffffffffffffffffffffffffffffff1673ffffffffffffffffffffffffffffffffffffffff16815260200190815260200160002060010190816104109190611069565b506001600460008673ffffffffffffffffffffffffffffffffffffffff1673ffffffffffffffffffffffffffffffffffffffff16815260200190815260200160002060040160006101000a81548160ff021916908315150217905550600190509392505050565b6000600460008373ffffffffffffffffffffffffffffffffffffffff1673ffffffffffffffffffffffffffffffffffffffff168152602001908152602001600020600201549050919050565b60008060009050600460008473ffffffffffffffffffffffffffffffffffffffff1673ffffffffffffffffffffffffffffffffffffffff16815260200190815260200160002060040160009054906101000a900460ff16156105e35760005b6000805490508110156105785760016000828154811061054557610544610d07565b5b906000526020600020015403610565576001826105629190610d65565b91505b808061057090610dbb565b915050610522565b50600a816105869190610e03565b600281905550600254600460008573ffffffffffffffffffffffffffffffffffffffff1673ffffffffffffffffffffffffffffffffffffffff168152602001908152602001600020600201819055506000806105e291906108af565b5b600254915050919050565b6000600460008473ffffffffffffffffffffffffffffffffffffffff1673ffffffffffffffffffffffffffffffffffffffff16815260200190815260200160002060040160009054906101000a900460ff161561067757600182908060018154018082558091505060019003906000526020600020016000909190919091505560019050610678565b5b92915050565b60046020528060005260406000206000915090508060000154908060010180546106a790610e8c565b80601f01602080910402602001604051908101604052809291908181526020018280546106d390610e8c565b80156107205780601f106106f557610100808354040283529160200191610720565b820191906000526020600020905b81548152906001019060200180831161070357829003601f168201915b5050505050908060020154908060030154908060040160009054906101000a900460ff16908060040160019054906101000a900460ff16905086565b6000600460008473ffffffffffffffffffffffffffffffffffffffff1673ffffffffffffffffffffffffffffffffffffffff16815260200190815260200160002060040160009054906101000a900460ff16156107e5576000829080600181540180825580915050600190039060005260206000200160009091909190915055600190506107e6565b5b92915050565b6000600460008373ffffffffffffffffffffffffffffffffffffffff1673ffffffffffffffffffffffffffffffffffffffff168152602001908152602001600020600301549050919050565b6000600354600254036108a9576001600460008473ffffffffffffffffffffffffffffffffffffffff1673ffffffffffffffffffffffffffffffffffffffff16815260200190815260200160002060040160016101000a81548160ff021916908315150217905550600190506108aa565b5b919050565b50805460008255906000526020600020908101906108cd91906108d0565b50565b5b808211156108e95760008160009055506001016108d1565b5090565b6000604051905090565b600080fd5b600080fd5b600073ffffffffffffffffffffffffffffffffffffffff82169050919050565b600061092c82610901565b9050919050565b61093c81610921565b811461094757600080fd5b50565b60008135905061095981610933565b92915050565b600060208284031215610975576109746108f7565b5b60006109838482850161094a565b91505092915050565b6000819050919050565b61099f8161098c565b82525050565b60006020820190506109ba6000830184610996565b92915050565b6109c98161098c565b81146109d457600080fd5b50565b6000813590506109e6816109c0565b92915050565b600080fd5b600080fd5b6000601f19601f8301169050919050565b7f4e487b7100000000000000000000000000000000000000000000000000000000600052604160045260246000fd5b610a3f826109f6565b810181811067ffffffffffffffff82111715610a5e57610a5d610a07565b5b80604052505050565b6000610a716108ed565b9050610a7d8282610a36565b919050565b600067ffffffffffffffff821115610a9d57610a9c610a07565b5b610aa6826109f6565b9050602081019050919050565b82818337600083830152505050565b6000610ad5610ad084610a82565b610a67565b905082815260208101848484011115610af157610af06109f1565b5b610afc848285610ab3565b509392505050565b600082601f830112610b1957610b186109ec565b5b8135610b29848260208601610ac2565b91505092915050565b600080600060608486031215610b4b57610b4a6108f7565b5b6000610b598682870161094a565b9350506020610b6a868287016109d7565b925050604084013567ffffffffffffffff811115610b8b57610b8a6108fc565b5b610b9786828701610b04565b9150509250925092565b60008115159050919050565b610bb681610ba1565b82525050565b6000602082019050610bd16000830184610bad565b92915050565b60008060408385031215610bee57610bed6108f7565b5b6000610bfc8582860161094a565b9250506020610c0d858286016109d7565b9150509250929050565b600081519050919050565b600082825260208201905092915050565b60005b83811015610c51578082015181840152602081019050610c36565b83811115610c60576000848401525b50505050565b6000610c7182610c17565b610c7b8185610c22565b9350610c8b818560208601610c33565b610c94816109f6565b840191505092915050565b600060c082019050610cb46000830189610996565b8181036020830152610cc68188610c66565b9050610cd56040830187610996565b610ce26060830186610996565b610cef6080830185610bad565b610cfc60a0830184610bad565b979650505050505050565b7f4e487b7100000000000000000000000000000000000000000000000000000000600052603260045260246000fd5b7f4e487b7100000000000000000000000000000000000000000000000000000000600052601160045260246000fd5b6000610d708261098c565b9150610d7b8361098c565b9250827fffffffffffffffffffffffffffffffffffffffffffffffffffffffffffffffff03821115610db057610daf610d36565b5b828201905092915050565b6000610dc68261098c565b91507fffffffffffffffffffffffffffffffffffffffffffffffffffffffffffffffff8203610df857610df7610d36565b5b600182019050919050565b6000610e0e8261098c565b9150610e198361098c565b9250817fffffffffffffffffffffffffffffffffffffffffffffffffffffffffffffffff0483118215151615610e5257610e51610d36565b5b828202905092915050565b7f4e487b7100000000000000000000000000000000000000000000000000000000600052602260045260246000fd5b60006002820490506001821680610ea457607f821691505b602082108103610eb757610eb6610e5d565b5b50919050565b60008190508160005260206000209050919050565b60006020601f8301049050919050565b600082821b905092915050565b600060088302610f1f7fffffffffffffffffffffffffffffffffffffffffffffffffffffffffffffffff82610ee2565b610f298683610ee2565b95508019841693508086168417925050509392505050565b6000819050919050565b6000610f66610f61610f5c8461098c565b610f41565b61098c565b9050919050565b6000819050919050565b610f8083610f4b565b610f94610f8c82610f6d565b848454610eef565b825550505050565b600090565b610fa9610f9c565b610fb4818484610f77565b505050565b5b81811015610fd857610fcd600082610fa1565b600181019050610fba565b5050565b601f82111561101d57610fee81610ebd565b610ff784610ed2565b81016020851015611006578190505b61101a61101285610ed2565b830182610fb9565b50505b505050565b600082821c905092915050565b600061104060001984600802611022565b1980831691505092915050565b6000611059838361102f565b9150826002028217905092915050565b61107282610c17565b67ffffffffffffffff81111561108b5761108a610a07565b5b6110958254610e8c565b6110a0828285610fdc565b600060209050601f8311600181146110d357600084156110c1578287015190505b6110cb858261104d565b865550611133565b601f1984166110e186610ebd565b60005b82811015611109578489015182556001820191506020850194506020810190506110e4565b868310156111265784890151611122601f89168261102f565b8355505b6001600288020188555050505b50505050505056fea26469706673582212205825f53a3a352c559a8ca1e0859aa9c3c24190f87cccf9d9718170712505271264736f6c634300080f0033",
  "immutableReferences": {},
  "source": "pragma solidity >= 0.5.0;\r\n\r\ncontract ItemScore{\r\n\r\n    uint [] userAnswer;\r\n    uint [] valAnswer;\r\n    uint userScore;\r\n    uint valScore;\r\n\r\n    struct User {\r\n    uint id;\r\n    string name; \r\n    uint userEstPoints;\r\n    uint validEstPoints;\r\n    bool set; // This boolean is used to differentiate between unset and zero struct values\r\n    bool tokenEL;\r\n    }\r\n\r\n\r\n\r\n    mapping(address => User) public users;\r\n\r\n    function newUser(address userAddress, uint userid, string memory username) public returns(bool) {\r\n        users[userAddress].id = userid;\r\n        users[userAddress].name = username;\r\n        users[userAddress].set = true;\r\n        return true;\r\n    }\r\n    function mappValueUser(address userAddress) public view returns(uint){\r\n        return users[userAddress].userEstPoints;\r\n    }\r\n    function mappValueValidator(address userAddress) public view returns(uint){\r\n        return users[userAddress].validEstPoints;\r\n    }\r\n\r\n    function user_Points(address userAddress, uint point) public returns(bool success){\r\n        if(users[userAddress].set){\r\n            userAnswer.push(point);\r\n            return true;\r\n        }\r\n        \r\n    }\r\n\r\n    function userEstim(address userAddress) public returns(uint score){\r\n        uint count = 0;\r\n        userScore;\r\n        if(users[userAddress].set){\r\n            for(uint i = 0; i < userAnswer.length; i++){\r\n                if(userAnswer[i] == 1){\r\n                   count = count+1;\r\n                }\r\n            }\r\n            userScore = count*10;\r\n            users[userAddress].userEstPoints = userScore;\r\n           delete userAnswer; \r\n        }\r\n        return userScore;\r\n    }\r\n\r\n    function Validator_Points(address userAddress, uint point) public returns(bool success){\r\n        if(users[userAddress].set){\r\n            valAnswer.push(point);\r\n            return true;\r\n        }  \r\n    }\r\n\r\n    function valEstim(address userAddress) public returns(uint score){\r\n        uint count = 0;\r\n        valScore;\r\n        // uint total_score;\r\n        if(users[userAddress].set){\r\n            for(uint i = 0; i < valAnswer.length; i++){\r\n                if(valAnswer[i] == 1){\r\n                   count = count+1;\r\n                }\r\n            }\r\n            valScore = count*10;\r\n            users[userAddress].validEstPoints = valScore;\r\n            delete valAnswer;\r\n        }\r\n        return valScore;\r\n    }\r\n\r\n    // function compare(address userAddress) public returns(bool success){\r\n    //     if(users[userAddress].userEstPoints == users[userAddress].validEstPoints){\r\n    //         users[userAddress].tokenEL = true;\r\n    //         return true;\r\n    //     }\r\n    // }\r\n    function compare(address userAddress) public returns(bool success){\r\n        if( userScore == valScore){\r\n            users[userAddress].tokenEL = true;\r\n            return true;\r\n        }\r\n    }\r\n \r\n    \r\n}\r\n\r\n// // SPDX-License-Identifier: MIT\r\n// //pragma solidity ^0.8.0;\r\n\r\n// import \"https://github.com/nibbstack/erc721/src/contracts/tokens/nf-token-metadata.sol\";\r\n// import \"https://github.com/nibbstack/erc721/src/contracts/ownership/ownable.sol\";\r\n\r\n// /**\r\n//  * @dev This is an example contract implementation of NFToken with metadata extension.\r\n//  */\r\n// contract MyArtSale is\r\n//   NFTokenMetadata,\r\n//   Ownable\r\n// {\r\n\r\n//   /**\r\n//    * @dev Contract constructor. Sets metadata extension `name` and `symbol`.\r\n//    */\r\n//   constructor()\r\n//   {\r\n//     nftName = \"Frank's Art Sale\";\r\n//     nftSymbol = \"FAS\";\r\n//   }\r\n\r\n//   /**\r\n//    * @dev Mints a new NFT.\r\n//    * @param _to The address that will own the minted NFT.\r\n//    * @param _tokenId of the NFT to be minted by the msg.sender.\r\n//    * @param _uri String representing RFC 3986 URI.\r\n//    */\r\n//   function mint(\r\n//     address _to,\r\n//     uint256 _tokenId,\r\n//     string calldata _uri\r\n//   )\r\n//     external\r\n//     onlyOwner\r\n//   {\r\n//     super._mint(_to, _tokenId);\r\n//     super._setTokenUri(_tokenId, _uri);\r\n//   }\r\n\r\n// }\r\n",
  "sourcePath": "C:\\Users\\Rohit\\Documents\\GitHub\\Rohit_AMWNA_BC\\Assignment&project\\Waste_management\\contracts\\E-waste_points.sol",
  "compiler": {
    "name": "solc",
    "version": "0.8.15+commit.e14f2714.Emscripten.clang"
  },
  "schemaVersion": "3.4.8",
  "updatedAt": "2022-11-17T11:56:57.175Z",
  "networkType": "ethereum",
  "devdoc": {
    "kind": "dev",
    "methods": {},
    "version": 1
  },
  "userdoc": {
    "kind": "user",
    "methods": {},
    "version": 1
  }
}